{
  "transactions": [
    {
      "hash": "0x1f3fa8e55a6b4e169bcf98d1d9333c915216469c2730af4cbb8581174decfd7c",
      "transactionType": "CALL",
      "contractName": null,
      "contractAddress": "0xb2f90825f319719044ff4ca4a7f0dacdea50d087",
      "function": "mintNft(string)",
      "arguments": [
        "ipfs://bafybeig37ioir76s7mg5oobetncojcm3c3hxasyd4rvid4jqhy4gkaheg4/?filename=0-PUG.json"
      ],
      "transaction": {
        "from": "0x767548e5ccee67a428c19758e106cb39bc1972dd",
        "to": "0xb2f90825f319719044ff4ca4a7f0dacdea50d087",
        "gas": "0x3da7f",
        "value": "0x0",
        "input": "0xda86f4a900000000000000000000000000000000000000000000000000000000000000200000000000000000000000000000000000000000000000000000000000000057697066733a2f2f62616679626569673337696f6972373673376d67356f6f6265746e636f6a636d3363336878617379643472766964346a71687934676b61686567342f3f66696c656e616d653d302d5055472e6a736f6e000000000000000000",
        "nonce": "0x6",
        "chainId": "0xaa36a7"
      },
      "additionalContracts": [],
      "isFixedGasLimit": false
    }
  ],
  "receipts": [
    {
      "status": "0x1",
      "cumulativeGasUsed": "0x9783f3",
      "logs": [
        {
          "address": "0xb2f90825f319719044ff4ca4a7f0dacdea50d087",
          "topics": [
            "0xddf252ad1be2c89b69c2b068fc378daa952ba7f163c4a11628f55a4df523b3ef",
            "0x0000000000000000000000000000000000000000000000000000000000000000",
            "0x000000000000000000000000767548e5ccee67a428c19758e106cb39bc1972dd",
            "0x0000000000000000000000000000000000000000000000000000000000000000"
          ],
          "data": "0x",
          "blockHash": "0xdcd0935e0151b4e2dceecad594196590fb0f44a7da7cb29ae37d6ae1b6cabcf2",
          "blockNumber": "0x8ed295",
          "blockTimestamp": "0x68e4ad74",
          "transactionHash": "0x1f3fa8e55a6b4e169bcf98d1d9333c915216469c2730af4cbb8581174decfd7c",
          "transactionIndex": "0x4f",
          "logIndex": "0x6a",
          "removed": false
        }
      ],
      "logsBloom": "0x00000000000000000000000000000000000800000000000080000000000000000000000000000000000000000000000000000000000000000000000000000000000000000000000000000008000000000000000001000000000000000000000000000000020000000000000000000800000000000000000000002010000000000000000000000000000000000000000000000000000000000000000000000000000000000000000000000000000000000000000000000000000000000000000000000002000000000000000000000000000000000000000000000000000020000000000000000040000000000000000000000000000010000000000000000000",
      "type": "0x2",
      "transactionHash": "0x1f3fa8e55a6b4e169bcf98d1d9333c915216469c2730af4cbb8581174decfd7c",
      "transactionIndex": "0x4f",
      "blockHash": "0xdcd0935e0151b4e2dceecad594196590fb0f44a7da7cb29ae37d6ae1b6cabcf2",
      "blockNumber": "0x8ed295",
      "gasUsed": "0x2ca35",
      "effectiveGasPrice": "0xf428e",
      "from": "0x767548e5ccee67a428c19758e106cb39bc1972dd",
      "to": "0xb2f90825f319719044ff4ca4a7f0dacdea50d087",
      "contractAddress": null
    }
  ],
  "libraries": [],
  "pending": [],
  "returns": {},
  "timestamp": 1759817077830,
  "chain": 11155111,
  "commit": null
}